{
  "contractName": "Asset",
  "abi": [
    {
      "inputs": [
        {
          "internalType": "address",
          "name": "_owner",
          "type": "address"
        },
        {
          "internalType": "string",
          "name": "_name",
          "type": "string"
        },
        {
          "internalType": "string",
          "name": "_symbol",
          "type": "string"
        },
        {
          "internalType": "address",
          "name": "_imx",
          "type": "address"
        }
      ],
      "stateMutability": "nonpayable",
      "type": "constructor"
    },
    {
      "anonymous": false,
      "inputs": [
        {
          "indexed": true,
          "internalType": "address",
          "name": "owner",
          "type": "address"
        },
        {
          "indexed": true,
          "internalType": "address",
          "name": "approved",
          "type": "address"
        },
        {
          "indexed": true,
          "internalType": "uint256",
          "name": "tokenId",
          "type": "uint256"
        }
      ],
      "name": "Approval",
      "type": "event"
    },
    {
      "anonymous": false,
      "inputs": [
        {
          "indexed": true,
          "internalType": "address",
          "name": "owner",
          "type": "address"
        },
        {
          "indexed": true,
          "internalType": "address",
          "name": "operator",
          "type": "address"
        },
        {
          "indexed": false,
          "internalType": "bool",
          "name": "approved",
          "type": "bool"
        }
      ],
      "name": "ApprovalForAll",
      "type": "event"
    },
    {
      "anonymous": false,
      "inputs": [
        {
          "indexed": false,
          "internalType": "address",
          "name": "to",
          "type": "address"
        },
        {
          "indexed": false,
          "internalType": "uint256",
          "name": "id",
          "type": "uint256"
        },
        {
          "indexed": false,
          "internalType": "bytes",
          "name": "blueprint",
          "type": "bytes"
        }
      ],
      "name": "AssetMinted",
      "type": "event"
    },
    {
      "anonymous": false,
      "inputs": [
        {
          "indexed": true,
          "internalType": "address",
          "name": "previousOwner",
          "type": "address"
        },
        {
          "indexed": true,
          "internalType": "address",
          "name": "newOwner",
          "type": "address"
        }
      ],
      "name": "OwnershipTransferred",
      "type": "event"
    },
    {
      "anonymous": false,
      "inputs": [
        {
          "indexed": true,
          "internalType": "address",
          "name": "from",
          "type": "address"
        },
        {
          "indexed": true,
          "internalType": "address",
          "name": "to",
          "type": "address"
        },
        {
          "indexed": true,
          "internalType": "uint256",
          "name": "tokenId",
          "type": "uint256"
        }
      ],
      "name": "Transfer",
      "type": "event"
    },
    {
      "inputs": [
        {
          "internalType": "address",
          "name": "to",
          "type": "address"
        },
        {
          "internalType": "uint256",
          "name": "tokenId",
          "type": "uint256"
        }
      ],
      "name": "approve",
      "outputs": [],
      "stateMutability": "nonpayable",
      "type": "function"
    },
    {
      "inputs": [
        {
          "internalType": "address",
          "name": "owner",
          "type": "address"
        }
      ],
      "name": "balanceOf",
      "outputs": [
        {
          "internalType": "uint256",
          "name": "",
          "type": "uint256"
        }
      ],
      "stateMutability": "view",
      "type": "function",
      "constant": true
    },
    {
      "inputs": [
        {
          "internalType": "uint256",
          "name": "",
          "type": "uint256"
        }
      ],
      "name": "blueprints",
      "outputs": [
        {
          "internalType": "bytes",
          "name": "",
          "type": "bytes"
        }
      ],
      "stateMutability": "view",
      "type": "function",
      "constant": true
    },
    {
      "inputs": [],
      "name": "cost",
      "outputs": [
        {
          "internalType": "uint256",
          "name": "",
          "type": "uint256"
        }
      ],
      "stateMutability": "view",
      "type": "function",
      "constant": true
    },
    {
      "inputs": [
        {
          "internalType": "uint256",
          "name": "tokenId",
          "type": "uint256"
        }
      ],
      "name": "getApproved",
      "outputs": [
        {
          "internalType": "address",
          "name": "",
          "type": "address"
        }
      ],
      "stateMutability": "view",
      "type": "function",
      "constant": true
    },
    {
      "inputs": [],
      "name": "imx",
      "outputs": [
        {
          "internalType": "address",
          "name": "",
          "type": "address"
        }
      ],
      "stateMutability": "view",
      "type": "function",
      "constant": true
    },
    {
      "inputs": [
        {
          "internalType": "address",
          "name": "owner",
          "type": "address"
        },
        {
          "internalType": "address",
          "name": "operator",
          "type": "address"
        }
      ],
      "name": "isApprovedForAll",
      "outputs": [
        {
          "internalType": "bool",
          "name": "",
          "type": "bool"
        }
      ],
      "stateMutability": "view",
      "type": "function",
      "constant": true
    },
    {
      "inputs": [
        {
          "internalType": "address",
          "name": "user",
          "type": "address"
        },
        {
          "internalType": "uint256",
          "name": "quantity",
          "type": "uint256"
        },
        {
          "internalType": "bytes",
          "name": "mintingBlob",
          "type": "bytes"
        }
      ],
      "name": "mintFor",
      "outputs": [],
      "stateMutability": "nonpayable",
      "type": "function"
    },
    {
      "inputs": [],
      "name": "name",
      "outputs": [
        {
          "internalType": "string",
          "name": "",
          "type": "string"
        }
      ],
      "stateMutability": "view",
      "type": "function",
      "constant": true
    },
    {
      "inputs": [],
      "name": "owner",
      "outputs": [
        {
          "internalType": "address",
          "name": "",
          "type": "address"
        }
      ],
      "stateMutability": "view",
      "type": "function",
      "constant": true
    },
    {
      "inputs": [
        {
          "internalType": "uint256",
          "name": "tokenId",
          "type": "uint256"
        }
      ],
      "name": "ownerOf",
      "outputs": [
        {
          "internalType": "address",
          "name": "",
          "type": "address"
        }
      ],
      "stateMutability": "view",
      "type": "function",
      "constant": true
    },
    {
      "inputs": [],
      "name": "preSaleMintLimit",
      "outputs": [
        {
          "internalType": "uint256",
          "name": "",
          "type": "uint256"
        }
      ],
      "stateMutability": "view",
      "type": "function",
      "constant": true
    },
    {
      "inputs": [
        {
          "internalType": "address",
          "name": "",
          "type": "address"
        }
      ],
      "name": "preSaleMinted",
      "outputs": [
        {
          "internalType": "uint256",
          "name": "",
          "type": "uint256"
        }
      ],
      "stateMutability": "view",
      "type": "function",
      "constant": true
    },
    {
      "inputs": [],
      "name": "publicSaleMintLimit",
      "outputs": [
        {
          "internalType": "uint256",
          "name": "",
          "type": "uint256"
        }
      ],
      "stateMutability": "view",
      "type": "function",
      "constant": true
    },
    {
      "inputs": [
        {
          "internalType": "address",
          "name": "",
          "type": "address"
        }
      ],
      "name": "publicSaleMinted",
      "outputs": [
        {
          "internalType": "uint256",
          "name": "",
          "type": "uint256"
        }
      ],
      "stateMutability": "view",
      "type": "function",
      "constant": true
    },
    {
      "inputs": [],
      "name": "renounceOwnership",
      "outputs": [],
      "stateMutability": "nonpayable",
      "type": "function"
    },
    {
      "inputs": [
        {
          "internalType": "address",
          "name": "from",
          "type": "address"
        },
        {
          "internalType": "address",
          "name": "to",
          "type": "address"
        },
        {
          "internalType": "uint256",
          "name": "tokenId",
          "type": "uint256"
        }
      ],
      "name": "safeTransferFrom",
      "outputs": [],
      "stateMutability": "nonpayable",
      "type": "function"
    },
    {
      "inputs": [
        {
          "internalType": "address",
          "name": "from",
          "type": "address"
        },
        {
          "internalType": "address",
          "name": "to",
          "type": "address"
        },
        {
          "internalType": "uint256",
          "name": "tokenId",
          "type": "uint256"
        },
        {
          "internalType": "bytes",
          "name": "_data",
          "type": "bytes"
        }
      ],
      "name": "safeTransferFrom",
      "outputs": [],
      "stateMutability": "nonpayable",
      "type": "function"
    },
    {
      "inputs": [
        {
          "internalType": "address",
          "name": "operator",
          "type": "address"
        },
        {
          "internalType": "bool",
          "name": "approved",
          "type": "bool"
        }
      ],
      "name": "setApprovalForAll",
      "outputs": [],
      "stateMutability": "nonpayable",
      "type": "function"
    },
    {
      "inputs": [
        {
          "internalType": "bytes4",
          "name": "interfaceId",
          "type": "bytes4"
        }
      ],
      "name": "supportsInterface",
      "outputs": [
        {
          "internalType": "bool",
          "name": "",
          "type": "bool"
        }
      ],
      "stateMutability": "view",
      "type": "function",
      "constant": true
    },
    {
      "inputs": [],
      "name": "symbol",
      "outputs": [
        {
          "internalType": "string",
          "name": "",
          "type": "string"
        }
      ],
      "stateMutability": "view",
      "type": "function",
      "constant": true
    },
    {
      "inputs": [],
      "name": "tokenCount",
      "outputs": [
        {
          "internalType": "uint256",
          "name": "",
          "type": "uint256"
        }
      ],
      "stateMutability": "view",
      "type": "function",
      "constant": true
    },
    {
      "inputs": [
        {
          "internalType": "uint256",
          "name": "tokenId",
          "type": "uint256"
        }
      ],
      "name": "tokenURI",
      "outputs": [
        {
          "internalType": "string",
          "name": "",
          "type": "string"
        }
      ],
      "stateMutability": "view",
      "type": "function",
      "constant": true
    },
    {
      "inputs": [],
      "name": "totalSupply",
      "outputs": [
        {
          "internalType": "uint256",
          "name": "",
          "type": "uint256"
        }
      ],
      "stateMutability": "view",
      "type": "function",
      "constant": true
    },
    {
      "inputs": [
        {
          "internalType": "address",
          "name": "from",
          "type": "address"
        },
        {
          "internalType": "address",
          "name": "to",
          "type": "address"
        },
        {
          "internalType": "uint256",
          "name": "tokenId",
          "type": "uint256"
        }
      ],
      "name": "transferFrom",
      "outputs": [],
      "stateMutability": "nonpayable",
      "type": "function"
    },
    {
      "inputs": [
        {
          "internalType": "address",
          "name": "newOwner",
          "type": "address"
        }
      ],
      "name": "transferOwnership",
      "outputs": [],
      "stateMutability": "nonpayable",
      "type": "function"
    },
    {
      "inputs": [
        {
          "internalType": "uint256",
          "name": "_tokens",
          "type": "uint256"
        },
        {
          "internalType": "bool",
          "name": "_isPreSale",
          "type": "bool"
        }
      ],
      "name": "payFee",
      "outputs": [],
      "stateMutability": "payable",
      "type": "function",
      "payable": true
    },
    {
      "inputs": [
        {
          "internalType": "uint256",
          "name": "_cost",
          "type": "uint256"
        }
      ],
      "name": "setCost",
      "outputs": [],
      "stateMutability": "nonpayable",
      "type": "function"
    },
    {
      "inputs": [
        {
          "internalType": "uint256",
          "name": "_supply",
          "type": "uint256"
        }
      ],
      "name": "setTotalSupply",
      "outputs": [],
      "stateMutability": "nonpayable",
      "type": "function"
    },
    {
      "inputs": [
        {
          "internalType": "uint256",
          "name": "_limit",
          "type": "uint256"
        }
      ],
      "name": "setPublicMintLimit",
      "outputs": [],
      "stateMutability": "nonpayable",
      "type": "function"
    },
    {
      "inputs": [
        {
          "internalType": "uint256",
          "name": "_limit",
          "type": "uint256"
        }
      ],
      "name": "setPreMintLimit",
      "outputs": [],
      "stateMutability": "nonpayable",
      "type": "function"
    }
  ],
  "bytecode": "0x6080604052600060095566f8b0a10e470000600a556115b3600b556002600c556003600d553480156200003157600080fd5b5060405162004907380380620049078339818101604052810190620000579190620004d0565b838184846200007b6200006f6200018060201b60201c565b6200018860201b60201c565b8160019080519060200190620000939291906200038b565b508060029080519060200190620000ac9291906200038b565b50505080600760006101000a81548173ffffffffffffffffffffffffffffffffffffffff021916908373ffffffffffffffffffffffffffffffffffffffff160217905550600073ffffffffffffffffffffffffffffffffffffffff168273ffffffffffffffffffffffffffffffffffffffff16141562000163576040517f08c379a00000000000000000000000000000000000000000000000000000000081526004016200015a9062000617565b60405180910390fd5b62000174826200024c60201b60201c565b505050505050620008df565b600033905090565b60008060009054906101000a900473ffffffffffffffffffffffffffffffffffffffff169050816000806101000a81548173ffffffffffffffffffffffffffffffffffffffff021916908373ffffffffffffffffffffffffffffffffffffffff1602179055508173ffffffffffffffffffffffffffffffffffffffff168173ffffffffffffffffffffffffffffffffffffffff167f8be0079c531659141344cd1fd0a4f28419497f9722a3daafe3b4186f6b6457e060405160405180910390a35050565b6200025c6200018060201b60201c565b73ffffffffffffffffffffffffffffffffffffffff16620002826200036260201b60201c565b73ffffffffffffffffffffffffffffffffffffffff1614620002db576040517f08c379a0000000000000000000000000000000000000000000000000000000008152600401620002d29062000639565b60405180910390fd5b600073ffffffffffffffffffffffffffffffffffffffff168173ffffffffffffffffffffffffffffffffffffffff1614156200034e576040517f08c379a00000000000000000000000000000000000000000000000000000000081526004016200034590620005f5565b60405180910390fd5b6200035f816200018860201b60201c565b50565b60008060009054906101000a900473ffffffffffffffffffffffffffffffffffffffff16905090565b828054620003999062000735565b90600052602060002090601f016020900481019282620003bd576000855562000409565b82601f10620003d857805160ff191683800117855562000409565b8280016001018555821562000409579182015b8281111562000408578251825591602001919060010190620003eb565b5b5090506200041891906200041c565b5090565b5b80821115620004375760008160009055506001016200041d565b5090565b6000620004526200044c8462000684565b6200065b565b90508281526020810184848401111562000471576200047062000804565b5b6200047e848285620006ff565b509392505050565b6000815190506200049781620008c5565b92915050565b600082601f830112620004b557620004b4620007ff565b5b8151620004c78482602086016200043b565b91505092915050565b60008060008060808587031215620004ed57620004ec6200080e565b5b6000620004fd8782880162000486565b945050602085015167ffffffffffffffff81111562000521576200052062000809565b5b6200052f878288016200049d565b935050604085015167ffffffffffffffff81111562000553576200055262000809565b5b62000561878288016200049d565b9250506060620005748782880162000486565b91505092959194509250565b60006200058f602683620006ba565b91506200059c8262000824565b604082019050919050565b6000620005b6601783620006ba565b9150620005c38262000873565b602082019050919050565b6000620005dd602083620006ba565b9150620005ea826200089c565b602082019050919050565b60006020820190508181036000830152620006108162000580565b9050919050565b600060208201905081810360008301526200063281620005a7565b9050919050565b600060208201905081810360008301526200065481620005ce565b9050919050565b6000620006676200067a565b90506200067582826200076b565b919050565b6000604051905090565b600067ffffffffffffffff821115620006a257620006a1620007d0565b5b620006ad8262000813565b9050602081019050919050565b600082825260208201905092915050565b6000620006d882620006df565b9050919050565b600073ffffffffffffffffffffffffffffffffffffffff82169050919050565b60005b838110156200071f57808201518184015260208101905062000702565b838111156200072f576000848401525b50505050565b600060028204905060018216806200074e57607f821691505b60208210811415620007655762000764620007a1565b5b50919050565b620007768262000813565b810181811067ffffffffffffffff82111715620007985762000797620007d0565b5b80604052505050565b7f4e487b7100000000000000000000000000000000000000000000000000000000600052602260045260246000fd5b7f4e487b7100000000000000000000000000000000000000000000000000000000600052604160045260246000fd5b600080fd5b600080fd5b600080fd5b600080fd5b6000601f19601f8301169050919050565b7f4f776e61626c653a206e6577206f776e657220697320746865207a65726f206160008201527f6464726573730000000000000000000000000000000000000000000000000000602082015250565b7f4f776e6572206d757374206e6f7420626520656d707479000000000000000000600082015250565b7f4f776e61626c653a2063616c6c6572206973206e6f7420746865206f776e6572600082015250565b620008d081620006cb565b8114620008dc57600080fd5b50565b61401880620008ef6000396000f3fe6080604052600436106101d85760003560e01c806366bf33be11610102578063b79e52b211610095578063ef3e067c11610064578063ef3e067c146106d5578063f2fde38b146106fe578063f59003e914610727578063f7ea7a3d14610752576101d8565b8063b79e52b214610609578063b88d4fde14610632578063c87b56dd1461065b578063e985e9c514610698576101d8565b80638da5cb5b116100d15780638da5cb5b1461055f57806395d89b411461058a5780639f181b5e146105b5578063a22cb465146105e0576101d8565b806366bf33be146104a357806370a08231146104e0578063715018a61461051d5780638bf7859b14610534576101d8565b806319ee6e3f1161017a57806342842e0e1161014957806342842e0e146103d757806344a0d68a14610400578063529be43b146104295780636352211e14610466576101d8565b806319ee6e3f1461032c5780632315988c1461035557806323b872dd14610371578063244b7e931461039a576101d8565b8063095ea7b3116101b6578063095ea7b3146102825780630f08025f146102ab57806313faede6146102d657806318160ddd14610301576101d8565b806301ffc9a7146101dd57806306fdde031461021a578063081812fc14610245575b600080fd5b3480156101e957600080fd5b5061020460048036038101906101ff9190612ccd565b61077b565b6040516102119190613244565b60405180910390f35b34801561022657600080fd5b5061022f61085d565b60405161023c9190613281565b60405180910390f35b34801561025157600080fd5b5061026c60048036038101906102679190612d27565b6108ef565b604051610279919061319f565b60405180910390f35b34801561028e57600080fd5b506102a960048036038101906102a49190612c19565b610974565b005b3480156102b757600080fd5b506102c0610a8c565b6040516102cd919061319f565b60405180910390f35b3480156102e257600080fd5b506102eb610ab2565b6040516102f89190613543565b60405180910390f35b34801561030d57600080fd5b50610316610ab8565b6040516103239190613543565b60405180910390f35b34801561033857600080fd5b50610353600480360381019061034e9190612c59565b610abe565b005b61036f600480360381019061036a9190612d54565b610c18565b005b34801561037d57600080fd5b5061039860048036038101906103939190612b03565b610f12565b005b3480156103a657600080fd5b506103c160048036038101906103bc9190612a96565b610f72565b6040516103ce9190613543565b60405180910390f35b3480156103e357600080fd5b506103fe60048036038101906103f99190612b03565b610f8a565b005b34801561040c57600080fd5b5061042760048036038101906104229190612d27565b610faa565b005b34801561043557600080fd5b50610450600480360381019061044b9190612a96565b611030565b60405161045d9190613543565b60405180910390f35b34801561047257600080fd5b5061048d60048036038101906104889190612d27565b611048565b60405161049a919061319f565b60405180910390f35b3480156104af57600080fd5b506104ca60048036038101906104c59190612d27565b6110fa565b6040516104d7919061325f565b60405180910390f35b3480156104ec57600080fd5b5061050760048036038101906105029190612a96565b61119a565b6040516105149190613543565b60405180910390f35b34801561052957600080fd5b50610532611252565b005b34801561054057600080fd5b506105496112da565b6040516105569190613543565b60405180910390f35b34801561056b57600080fd5b506105746112e0565b604051610581919061319f565b60405180910390f35b34801561059657600080fd5b5061059f611309565b6040516105ac9190613281565b60405180910390f35b3480156105c157600080fd5b506105ca61139b565b6040516105d79190613543565b60405180910390f35b3480156105ec57600080fd5b5061060760048036038101906106029190612bd9565b6113a1565b005b34801561061557600080fd5b50610630600480360381019061062b9190612d27565b611522565b005b34801561063e57600080fd5b5061065960048036038101906106549190612b56565b6115a8565b005b34801561066757600080fd5b50610682600480360381019061067d9190612d27565b61160a565b60405161068f9190613281565b60405180910390f35b3480156106a457600080fd5b506106bf60048036038101906106ba9190612ac3565b6116b1565b6040516106cc9190613244565b60405180910390f35b3480156106e157600080fd5b506106fc60048036038101906106f79190612d27565b611745565b005b34801561070a57600080fd5b5061072560048036038101906107209190612a96565b6117cb565b005b34801561073357600080fd5b5061073c6118c3565b6040516107499190613543565b60405180910390f35b34801561075e57600080fd5b5061077960048036038101906107749190612d27565b6118c9565b005b60007f80ac58cd000000000000000000000000000000000000000000000000000000007bffffffffffffffffffffffffffffffffffffffffffffffffffffffff1916827bffffffffffffffffffffffffffffffffffffffffffffffffffffffff1916148061084657507f5b5e139f000000000000000000000000000000000000000000000000000000007bffffffffffffffffffffffffffffffffffffffffffffffffffffffff1916827bffffffffffffffffffffffffffffffffffffffffffffffffffffffff1916145b8061085657506108558261194f565b5b9050919050565b60606001805461086c90613808565b80601f016020809104026020016040519081016040528092919081815260200182805461089890613808565b80156108e55780601f106108ba576101008083540402835291602001916108e5565b820191906000526020600020905b8154815290600101906020018083116108c857829003601f168201915b5050505050905090565b60006108fa826119b9565b610939576040517f08c379a000000000000000000000000000000000000000000000000000000000815260040161093090613463565b60405180910390fd5b6005600083815260200190815260200160002060009054906101000a900473ffffffffffffffffffffffffffffffffffffffff169050919050565b600061097f82611048565b90508073ffffffffffffffffffffffffffffffffffffffff168373ffffffffffffffffffffffffffffffffffffffff1614156109f0576040517f08c379a00000000000000000000000000000000000000000000000000000000081526004016109e7906134e3565b60405180910390fd5b8073ffffffffffffffffffffffffffffffffffffffff16610a0f611a25565b73ffffffffffffffffffffffffffffffffffffffff161480610a3e5750610a3d81610a38611a25565b6116b1565b5b610a7d576040517f08c379a0000000000000000000000000000000000000000000000000000000008152600401610a74906133e3565b60405180910390fd5b610a878383611a2d565b505050565b600760009054906101000a900473ffffffffffffffffffffffffffffffffffffffff1681565b600a5481565b600b5481565b600760009054906101000a900473ffffffffffffffffffffffffffffffffffffffff1673ffffffffffffffffffffffffffffffffffffffff163373ffffffffffffffffffffffffffffffffffffffff1614610b4e576040517f08c379a0000000000000000000000000000000000000000000000000000000008152600401610b45906132a3565b60405180910390fd5b60018314610b91576040517f08c379a0000000000000000000000000000000000000000000000000000000008152600401610b8890613383565b60405180910390fd5b600080610b9e8484611ae6565b91509150610bad868383611cfb565b80600860008481526020019081526020016000209080519060200190610bd49291906128c4565b507f31e594f6b36b98ec520a91cbbba7b8724b1cec27393f86d8f0f6aa6084db0aaf868383604051610c0893929190613206565b60405180910390a1505050505050565b81600a54610c2691906136c4565b3414610c67576040517f08c379a0000000000000000000000000000000000000000000000000000000008152600401610c5e906133c3565b60405180910390fd5b8015610d5957600c5482600f60003373ffffffffffffffffffffffffffffffffffffffff1673ffffffffffffffffffffffffffffffffffffffff16815260200190815260200160002054610cbb919061363d565b1115610cc657600080fd5b81600f60003373ffffffffffffffffffffffffffffffffffffffff1673ffffffffffffffffffffffffffffffffffffffff16815260200190815260200160002054610d11919061363d565b600f60003373ffffffffffffffffffffffffffffffffffffffff1673ffffffffffffffffffffffffffffffffffffffff16815260200190815260200160002081905550610e41565b600d5482600e60003373ffffffffffffffffffffffffffffffffffffffff1673ffffffffffffffffffffffffffffffffffffffff16815260200190815260200160002054610da7919061363d565b1115610db257600080fd5b81600e60003373ffffffffffffffffffffffffffffffffffffffff1673ffffffffffffffffffffffffffffffffffffffff16815260200190815260200160002054610dfd919061363d565b600e60003373ffffffffffffffffffffffffffffffffffffffff1673ffffffffffffffffffffffffffffffffffffffff168152602001908152602001600020819055505b8160096000828254610e53919061363d565b925050819055506000610e646112e0565b73ffffffffffffffffffffffffffffffffffffffff1634604051610e879061318a565b60006040518083038185875af1925050503d8060008114610ec4576040519150601f19603f3d011682016040523d82523d6000602084013e610ec9565b606091505b5050905080610f0d576040517f08c379a0000000000000000000000000000000000000000000000000000000008152600401610f0490613323565b60405180910390fd5b505050565b610f23610f1d611a25565b82611d6d565b610f62576040517f08c379a0000000000000000000000000000000000000000000000000000000008152600401610f5990613523565b60405180910390fd5b610f6d838383611e4b565b505050565b600e6020528060005260406000206000915090505481565b610fa5838383604051806020016040528060008152506115a8565b505050565b610fb2611a25565b73ffffffffffffffffffffffffffffffffffffffff16610fd06112e0565b73ffffffffffffffffffffffffffffffffffffffff1614611026576040517f08c379a000000000000000000000000000000000000000000000000000000000815260040161101d90613483565b60405180910390fd5b80600a8190555050565b600f6020528060005260406000206000915090505481565b6000806003600084815260200190815260200160002060009054906101000a900473ffffffffffffffffffffffffffffffffffffffff169050600073ffffffffffffffffffffffffffffffffffffffff168173ffffffffffffffffffffffffffffffffffffffff1614156110f1576040517f08c379a00000000000000000000000000000000000000000000000000000000081526004016110e890613423565b60405180910390fd5b80915050919050565b6008602052806000526040600020600091509050805461111990613808565b80601f016020809104026020016040519081016040528092919081815260200182805461114590613808565b80156111925780601f1061116757610100808354040283529160200191611192565b820191906000526020600020905b81548152906001019060200180831161117557829003601f168201915b505050505081565b60008073ffffffffffffffffffffffffffffffffffffffff168273ffffffffffffffffffffffffffffffffffffffff16141561120b576040517f08c379a000000000000000000000000000000000000000000000000000000000815260040161120290613403565b60405180910390fd5b600460008373ffffffffffffffffffffffffffffffffffffffff1673ffffffffffffffffffffffffffffffffffffffff168152602001908152602001600020549050919050565b61125a611a25565b73ffffffffffffffffffffffffffffffffffffffff166112786112e0565b73ffffffffffffffffffffffffffffffffffffffff16146112ce576040517f08c379a00000000000000000000000000000000000000000000000000000000081526004016112c590613483565b60405180910390fd5b6112d860006120a7565b565b600d5481565b60008060009054906101000a900473ffffffffffffffffffffffffffffffffffffffff16905090565b60606002805461131890613808565b80601f016020809104026020016040519081016040528092919081815260200182805461134490613808565b80156113915780601f1061136657610100808354040283529160200191611391565b820191906000526020600020905b81548152906001019060200180831161137457829003601f168201915b5050505050905090565b60095481565b6113a9611a25565b73ffffffffffffffffffffffffffffffffffffffff168273ffffffffffffffffffffffffffffffffffffffff161415611417576040517f08c379a000000000000000000000000000000000000000000000000000000000815260040161140e90613363565b60405180910390fd5b8060066000611424611a25565b73ffffffffffffffffffffffffffffffffffffffff1673ffffffffffffffffffffffffffffffffffffffff16815260200190815260200160002060008473ffffffffffffffffffffffffffffffffffffffff1673ffffffffffffffffffffffffffffffffffffffff16815260200190815260200160002060006101000a81548160ff0219169083151502179055508173ffffffffffffffffffffffffffffffffffffffff166114d1611a25565b73ffffffffffffffffffffffffffffffffffffffff167f17307eab39ab6107e8899845ad3d59bd9653f200f220920489ca2b5937696c31836040516115169190613244565b60405180910390a35050565b61152a611a25565b73ffffffffffffffffffffffffffffffffffffffff166115486112e0565b73ffffffffffffffffffffffffffffffffffffffff161461159e576040517f08c379a000000000000000000000000000000000000000000000000000000000815260040161159590613483565b60405180910390fd5b80600c8190555050565b6115b96115b3611a25565b83611d6d565b6115f8576040517f08c379a00000000000000000000000000000000000000000000000000000000081526004016115ef90613523565b60405180910390fd5b6116048484848461216b565b50505050565b6060611615826119b9565b611654576040517f08c379a000000000000000000000000000000000000000000000000000000000815260040161164b906134c3565b60405180910390fd5b600061165e6121c7565b9050600081511161167e57604051806020016040528060008152506116a9565b80611688846121de565b604051602001611699929190613166565b6040516020818303038152906040525b915050919050565b6000600660008473ffffffffffffffffffffffffffffffffffffffff1673ffffffffffffffffffffffffffffffffffffffff16815260200190815260200160002060008373ffffffffffffffffffffffffffffffffffffffff1673ffffffffffffffffffffffffffffffffffffffff16815260200190815260200160002060009054906101000a900460ff16905092915050565b61174d611a25565b73ffffffffffffffffffffffffffffffffffffffff1661176b6112e0565b73ffffffffffffffffffffffffffffffffffffffff16146117c1576040517f08c379a00000000000000000000000000000000000000000000000000000000081526004016117b890613483565b60405180910390fd5b80600d8190555050565b6117d3611a25565b73ffffffffffffffffffffffffffffffffffffffff166117f16112e0565b73ffffffffffffffffffffffffffffffffffffffff1614611847576040517f08c379a000000000000000000000000000000000000000000000000000000000815260040161183e90613483565b60405180910390fd5b600073ffffffffffffffffffffffffffffffffffffffff168173ffffffffffffffffffffffffffffffffffffffff1614156118b7576040517f08c379a00000000000000000000000000000000000000000000000000000000081526004016118ae906132e3565b60405180910390fd5b6118c0816120a7565b50565b600c5481565b6118d1611a25565b73ffffffffffffffffffffffffffffffffffffffff166118ef6112e0565b73ffffffffffffffffffffffffffffffffffffffff1614611945576040517f08c379a000000000000000000000000000000000000000000000000000000000815260040161193c90613483565b60405180910390fd5b80600b8190555050565b60007f01ffc9a7000000000000000000000000000000000000000000000000000000007bffffffffffffffffffffffffffffffffffffffffffffffffffffffff1916827bffffffffffffffffffffffffffffffffffffffffffffffffffffffff1916149050919050565b60008073ffffffffffffffffffffffffffffffffffffffff166003600084815260200190815260200160002060009054906101000a900473ffffffffffffffffffffffffffffffffffffffff1673ffffffffffffffffffffffffffffffffffffffff1614159050919050565b600033905090565b816005600083815260200190815260200160002060006101000a81548173ffffffffffffffffffffffffffffffffffffffff021916908373ffffffffffffffffffffffffffffffffffffffff160217905550808273ffffffffffffffffffffffffffffffffffffffff16611aa083611048565b73ffffffffffffffffffffffffffffffffffffffff167f8c5be1e5ebec7d5bd14f71427d1e84f3dd0314c0f7b2291e5b200ac8c7c3b92560405160405180910390a45050565b600060606000611b7185858080601f016020809104026020016040519081016040528093929190818152602001838380828437600081840152601f19601f820116905080830192505050505050506040518060400160405280600181526020017f3a00000000000000000000000000000000000000000000000000000000000000815250600061233f565b90506000811215611bb7576040517f08c379a0000000000000000000000000000000000000000000000000000000008152600401611bae90613503565b60405180910390fd5b6000611c238686600190600186611bce919061371e565b92611bdb93929190613602565b8080601f016020809104026020016040519081016040528093929190818152602001838380828437600081840152601f19601f82011690508083019250505050505050612437565b9050600060038388889050611c38919061371e565b611c42919061371e565b90506000811415611c6a57816040518060200160405280600081525094509450505050611cf4565b3660008888600287611c7c919061363d565b9060018c8c9050611c8d919061371e565b92611c9a93929190613602565b9150915083828281818080601f016020809104026020016040519081016040528093929190818152602001838380828437600081840152601f19601f82011690508083019250505050505050905090509650965050505050505b9250929050565b611d0583836124ce565b80600860008481526020019081526020016000209080519060200190611d2c9291906128c4565b507f31e594f6b36b98ec520a91cbbba7b8724b1cec27393f86d8f0f6aa6084db0aaf838383604051611d6093929190613206565b60405180910390a1505050565b6000611d78826119b9565b611db7576040517f08c379a0000000000000000000000000000000000000000000000000000000008152600401611dae906133a3565b60405180910390fd5b6000611dc283611048565b90508073ffffffffffffffffffffffffffffffffffffffff168473ffffffffffffffffffffffffffffffffffffffff161480611e3157508373ffffffffffffffffffffffffffffffffffffffff16611e19846108ef565b73ffffffffffffffffffffffffffffffffffffffff16145b80611e425750611e4181856116b1565b5b91505092915050565b8273ffffffffffffffffffffffffffffffffffffffff16611e6b82611048565b73ffffffffffffffffffffffffffffffffffffffff1614611ec1576040517f08c379a0000000000000000000000000000000000000000000000000000000008152600401611eb8906134a3565b60405180910390fd5b600073ffffffffffffffffffffffffffffffffffffffff168273ffffffffffffffffffffffffffffffffffffffff161415611f31576040517f08c379a0000000000000000000000000000000000000000000000000000000008152600401611f2890613343565b60405180910390fd5b611f3c8383836124ec565b611f47600082611a2d565b6001600460008573ffffffffffffffffffffffffffffffffffffffff1673ffffffffffffffffffffffffffffffffffffffff1681526020019081526020016000206000828254611f97919061371e565b925050819055506001600460008473ffffffffffffffffffffffffffffffffffffffff1673ffffffffffffffffffffffffffffffffffffffff1681526020019081526020016000206000828254611fee919061363d565b92505081905550816003600083815260200190815260200160002060006101000a81548173ffffffffffffffffffffffffffffffffffffffff021916908373ffffffffffffffffffffffffffffffffffffffff160217905550808273ffffffffffffffffffffffffffffffffffffffff168473ffffffffffffffffffffffffffffffffffffffff167fddf252ad1be2c89b69c2b068fc378daa952ba7f163c4a11628f55a4df523b3ef60405160405180910390a4505050565b60008060009054906101000a900473ffffffffffffffffffffffffffffffffffffffff169050816000806101000a81548173ffffffffffffffffffffffffffffffffffffffff021916908373ffffffffffffffffffffffffffffffffffffffff1602179055508173ffffffffffffffffffffffffffffffffffffffff168173ffffffffffffffffffffffffffffffffffffffff167f8be0079c531659141344cd1fd0a4f28419497f9722a3daafe3b4186f6b6457e060405160405180910390a35050565b612176848484611e4b565b612182848484846124f1565b6121c1576040517f08c379a00000000000000000000000000000000000000000000000000000000081526004016121b8906132c3565b60405180910390fd5b50505050565b606060405180602001604052806000815250905090565b60606000821415612226576040518060400160405280600181526020017f3000000000000000000000000000000000000000000000000000000000000000815250905061233a565b600082905060005b600082146122585780806122419061386b565b915050600a826122519190613693565b915061222e565b60008167ffffffffffffffff811115612274576122736139d0565b5b6040519080825280601f01601f1916602001820160405280156122a65781602001600182028036833780820191505090505b5090505b60008514612333576001826122bf919061371e565b9150600a856122ce91906138b4565b60306122da919061363d565b60f81b8183815181106122f0576122ef6139a1565b5b60200101907effffffffffffffffffffffffffffffffffffffffffffffffffffffffffffff1916908160001a905350600a8561232c9190613693565b94506122aa565b8093505050505b919050565b6000808390506001815114612357576123566138e5565b5b60008390505b855181101561240a578160008151811061237a576123796139a1565b5b602001015160f81c60f81b7effffffffffffffffffffffffffffffffffffffffffffffffffffffffffffff19168682815181106123ba576123b96139a1565b5b602001015160f81c60f81b7effffffffffffffffffffffffffffffffffffffffffffffffffffffffffffff191614156123f7578092505050612430565b80806124029061386b565b91505061235d565b507fffffffffffffffffffffffffffffffffffffffffffffffffffffffffffffffff9150505b9392505050565b6000806000905060005b83518110156124c457600084828151811061245f5761245e6139a1565b5b602001015160f81c60f81b60f81c60ff16905060308110158015612484575060398111155b156124b057603081612496919061371e565b600a846124a391906136c4565b6124ad919061363d565b92505b5080806124bc9061386b565b915050612441565b5080915050919050565b6124e8828260405180602001604052806000815250612688565b5050565b505050565b60006125128473ffffffffffffffffffffffffffffffffffffffff166126e3565b1561267b578373ffffffffffffffffffffffffffffffffffffffff1663150b7a0261253b611a25565b8786866040518563ffffffff1660e01b815260040161255d94939291906131ba565b602060405180830381600087803b15801561257757600080fd5b505af19250505080156125a857506040513d601f19601f820116820180604052508101906125a59190612cfa565b60015b61262b573d80600081146125d8576040519150601f19603f3d011682016040523d82523d6000602084013e6125dd565b606091505b50600081511415612623576040517f08c379a000000000000000000000000000000000000000000000000000000000815260040161261a906132c3565b60405180910390fd5b805181602001fd5b63150b7a0260e01b7bffffffffffffffffffffffffffffffffffffffffffffffffffffffff1916817bffffffffffffffffffffffffffffffffffffffffffffffffffffffff191614915050612680565b600190505b949350505050565b61269283836126f6565b61269f60008484846124f1565b6126de576040517f08c379a00000000000000000000000000000000000000000000000000000000081526004016126d5906132c3565b60405180910390fd5b505050565b600080823b905060008111915050919050565b600073ffffffffffffffffffffffffffffffffffffffff168273ffffffffffffffffffffffffffffffffffffffff161415612766576040517f08c379a000000000000000000000000000000000000000000000000000000000815260040161275d90613443565b60405180910390fd5b61276f816119b9565b156127af576040517f08c379a00000000000000000000000000000000000000000000000000000000081526004016127a690613303565b60405180910390fd5b6127bb600083836124ec565b6001600460008473ffffffffffffffffffffffffffffffffffffffff1673ffffffffffffffffffffffffffffffffffffffff168152602001908152602001600020600082825461280b919061363d565b92505081905550816003600083815260200190815260200160002060006101000a81548173ffffffffffffffffffffffffffffffffffffffff021916908373ffffffffffffffffffffffffffffffffffffffff160217905550808273ffffffffffffffffffffffffffffffffffffffff16600073ffffffffffffffffffffffffffffffffffffffff167fddf252ad1be2c89b69c2b068fc378daa952ba7f163c4a11628f55a4df523b3ef60405160405180910390a45050565b8280546128d090613808565b90600052602060002090601f0160209004810192826128f25760008555612939565b82601f1061290b57805160ff1916838001178555612939565b82800160010185558215612939579182015b8281111561293857825182559160200191906001019061291d565b5b509050612946919061294a565b5090565b5b8082111561296357600081600090555060010161294b565b5090565b600061297a61297584613583565b61355e565b90508281526020810184848401111561299657612995613a18565b5b6129a18482856137c6565b509392505050565b6000813590506129b881613f86565b92915050565b6000813590506129cd81613f9d565b92915050565b6000813590506129e281613fb4565b92915050565b6000815190506129f781613fb4565b92915050565b60008083601f840112612a1357612a12613a04565b5b8235905067ffffffffffffffff811115612a3057612a2f6139ff565b5b602083019150836001820283011115612a4c57612a4b613a13565b5b9250929050565b600082601f830112612a6857612a67613a04565b5b8135612a78848260208601612967565b91505092915050565b600081359050612a9081613fcb565b92915050565b600060208284031215612aac57612aab613a22565b5b6000612aba848285016129a9565b91505092915050565b60008060408385031215612ada57612ad9613a22565b5b6000612ae8858286016129a9565b9250506020612af9858286016129a9565b9150509250929050565b600080600060608486031215612b1c57612b1b613a22565b5b6000612b2a868287016129a9565b9350506020612b3b868287016129a9565b9250506040612b4c86828701612a81565b9150509250925092565b60008060008060808587031215612b7057612b6f613a22565b5b6000612b7e878288016129a9565b9450506020612b8f878288016129a9565b9350506040612ba087828801612a81565b925050606085013567ffffffffffffffff811115612bc157612bc0613a1d565b5b612bcd87828801612a53565b91505092959194509250565b60008060408385031215612bf057612bef613a22565b5b6000612bfe858286016129a9565b9250506020612c0f858286016129be565b9150509250929050565b60008060408385031215612c3057612c2f613a22565b5b6000612c3e858286016129a9565b9250506020612c4f85828601612a81565b9150509250929050565b60008060008060608587031215612c7357612c72613a22565b5b6000612c81878288016129a9565b9450506020612c9287828801612a81565b935050604085013567ffffffffffffffff811115612cb357612cb2613a1d565b5b612cbf878288016129fd565b925092505092959194509250565b600060208284031215612ce357612ce2613a22565b5b6000612cf1848285016129d3565b91505092915050565b600060208284031215612d1057612d0f613a22565b5b6000612d1e848285016129e8565b91505092915050565b600060208284031215612d3d57612d3c613a22565b5b6000612d4b84828501612a81565b91505092915050565b60008060408385031215612d6b57612d6a613a22565b5b6000612d7985828601612a81565b9250506020612d8a858286016129be565b9150509250929050565b612d9d81613752565b82525050565b612dac81613764565b82525050565b6000612dbd826135b4565b612dc781856135ca565b9350612dd78185602086016137d5565b612de081613a27565b840191505092915050565b6000612df6826135bf565b612e0081856135e6565b9350612e108185602086016137d5565b612e1981613a27565b840191505092915050565b6000612e2f826135bf565b612e3981856135f7565b9350612e498185602086016137d5565b80840191505092915050565b6000612e626022836135e6565b9150612e6d82613a38565b604082019050919050565b6000612e856032836135e6565b9150612e9082613a87565b604082019050919050565b6000612ea86026836135e6565b9150612eb382613ad6565b604082019050919050565b6000612ecb601c836135e6565b9150612ed682613b25565b602082019050919050565b6000612eee6011836135e6565b9150612ef982613b4e565b602082019050919050565b6000612f116024836135e6565b9150612f1c82613b77565b604082019050919050565b6000612f346019836135e6565b9150612f3f82613bc6565b602082019050919050565b6000612f57601a836135e6565b9150612f6282613bef565b602082019050919050565b6000612f7a602c836135e6565b9150612f8582613c18565b604082019050919050565b6000612f9d6014836135e6565b9150612fa882613c67565b602082019050919050565b6000612fc06038836135e6565b9150612fcb82613c90565b604082019050919050565b6000612fe3602a836135e6565b9150612fee82613cdf565b604082019050919050565b60006130066029836135e6565b915061301182613d2e565b604082019050919050565b60006130296020836135e6565b915061303482613d7d565b602082019050919050565b600061304c602c836135e6565b915061305782613da6565b604082019050919050565b600061306f6020836135e6565b915061307a82613df5565b602082019050919050565b60006130926029836135e6565b915061309d82613e1e565b604082019050919050565b60006130b5602f836135e6565b91506130c082613e6d565b604082019050919050565b60006130d86021836135e6565b91506130e382613ebc565b604082019050919050565b60006130fb6014836135e6565b915061310682613f0b565b602082019050919050565b600061311e6000836135db565b915061312982613f34565b600082019050919050565b60006131416031836135e6565b915061314c82613f37565b604082019050919050565b613160816137bc565b82525050565b60006131728285612e24565b915061317e8284612e24565b91508190509392505050565b600061319582613111565b9150819050919050565b60006020820190506131b46000830184612d94565b92915050565b60006080820190506131cf6000830187612d94565b6131dc6020830186612d94565b6131e96040830185613157565b81810360608301526131fb8184612db2565b905095945050505050565b600060608201905061321b6000830186612d94565b6132286020830185613157565b818103604083015261323a8184612db2565b9050949350505050565b60006020820190506132596000830184612da3565b92915050565b600060208201905081810360008301526132798184612db2565b905092915050565b6000602082019050818103600083015261329b8184612deb565b905092915050565b600060208201905081810360008301526132bc81612e55565b9050919050565b600060208201905081810360008301526132dc81612e78565b9050919050565b600060208201905081810360008301526132fc81612e9b565b9050919050565b6000602082019050818103600083015261331c81612ebe565b9050919050565b6000602082019050818103600083015261333c81612ee1565b9050919050565b6000602082019050818103600083015261335c81612f04565b9050919050565b6000602082019050818103600083015261337c81612f27565b9050919050565b6000602082019050818103600083015261339c81612f4a565b9050919050565b600060208201905081810360008301526133bc81612f6d565b9050919050565b600060208201905081810360008301526133dc81612f90565b9050919050565b600060208201905081810360008301526133fc81612fb3565b9050919050565b6000602082019050818103600083015261341c81612fd6565b9050919050565b6000602082019050818103600083015261343c81612ff9565b9050919050565b6000602082019050818103600083015261345c8161301c565b9050919050565b6000602082019050818103600083015261347c8161303f565b9050919050565b6000602082019050818103600083015261349c81613062565b9050919050565b600060208201905081810360008301526134bc81613085565b9050919050565b600060208201905081810360008301526134dc816130a8565b9050919050565b600060208201905081810360008301526134fc816130cb565b9050919050565b6000602082019050818103600083015261351c816130ee565b9050919050565b6000602082019050818103600083015261353c81613134565b9050919050565b60006020820190506135586000830184613157565b92915050565b6000613568613579565b9050613574828261383a565b919050565b6000604051905090565b600067ffffffffffffffff82111561359e5761359d6139d0565b5b6135a782613a27565b9050602081019050919050565b600081519050919050565b600081519050919050565b600082825260208201905092915050565b600081905092915050565b600082825260208201905092915050565b600081905092915050565b6000808585111561361657613615613a0e565b5b8386111561362757613626613a09565b5b6001850283019150848603905094509492505050565b6000613648826137bc565b9150613653836137bc565b9250827fffffffffffffffffffffffffffffffffffffffffffffffffffffffffffffffff0382111561368857613687613914565b5b828201905092915050565b600061369e826137bc565b91506136a9836137bc565b9250826136b9576136b8613943565b5b828204905092915050565b60006136cf826137bc565b91506136da836137bc565b9250817fffffffffffffffffffffffffffffffffffffffffffffffffffffffffffffffff048311821515161561371357613712613914565b5b828202905092915050565b6000613729826137bc565b9150613734836137bc565b92508282101561374757613746613914565b5b828203905092915050565b600061375d8261379c565b9050919050565b60008115159050919050565b60007fffffffff0000000000000000000000000000000000000000000000000000000082169050919050565b600073ffffffffffffffffffffffffffffffffffffffff82169050919050565b6000819050919050565b82818337600083830152505050565b60005b838110156137f35780820151818401526020810190506137d8565b83811115613802576000848401525b50505050565b6000600282049050600182168061382057607f821691505b6020821081141561383457613833613972565b5b50919050565b61384382613a27565b810181811067ffffffffffffffff82111715613862576138616139d0565b5b80604052505050565b6000613876826137bc565b91507fffffffffffffffffffffffffffffffffffffffffffffffffffffffffffffffff8214156138a9576138a8613914565b5b600182019050919050565b60006138bf826137bc565b91506138ca836137bc565b9250826138da576138d9613943565b5b828206905092915050565b7f4e487b7100000000000000000000000000000000000000000000000000000000600052600160045260246000fd5b7f4e487b7100000000000000000000000000000000000000000000000000000000600052601160045260246000fd5b7f4e487b7100000000000000000000000000000000000000000000000000000000600052601260045260246000fd5b7f4e487b7100000000000000000000000000000000000000000000000000000000600052602260045260246000fd5b7f4e487b7100000000000000000000000000000000000000000000000000000000600052603260045260246000fd5b7f4e487b7100000000000000000000000000000000000000000000000000000000600052604160045260246000fd5b600080fd5b600080fd5b600080fd5b600080fd5b600080fd5b600080fd5b600080fd5b600080fd5b6000601f19601f8301169050919050565b7f46756e6374696f6e2063616e206f6e6c792062652063616c6c6564206279204960008201527f4d58000000000000000000000000000000000000000000000000000000000000602082015250565b7f4552433732313a207472616e7366657220746f206e6f6e20455243373231526560008201527f63656976657220696d706c656d656e7465720000000000000000000000000000602082015250565b7f4f776e61626c653a206e6577206f776e657220697320746865207a65726f206160008201527f6464726573730000000000000000000000000000000000000000000000000000602082015250565b7f4552433732313a20746f6b656e20616c7265616479206d696e74656400000000600082015250565b7f5061796d656e74206e6f742073656e742e000000000000000000000000000000600082015250565b7f4552433732313a207472616e7366657220746f20746865207a65726f2061646460008201527f7265737300000000000000000000000000000000000000000000000000000000602082015250565b7f4552433732313a20617070726f766520746f2063616c6c657200000000000000600082015250565b7f4d696e7461626c653a20696e76616c6964207175616e74697479000000000000600082015250565b7f4552433732313a206f70657261746f7220717565727920666f72206e6f6e657860008201527f697374656e7420746f6b656e0000000000000000000000000000000000000000602082015250565b7f4552524f523a20496e76616c696420636f73742e000000000000000000000000600082015250565b7f4552433732313a20617070726f76652063616c6c6572206973206e6f74206f7760008201527f6e6572206e6f7220617070726f76656420666f7220616c6c0000000000000000602082015250565b7f4552433732313a2062616c616e636520717565727920666f7220746865207a6560008201527f726f206164647265737300000000000000000000000000000000000000000000602082015250565b7f4552433732313a206f776e657220717565727920666f72206e6f6e657869737460008201527f656e7420746f6b656e0000000000000000000000000000000000000000000000602082015250565b7f4552433732313a206d696e7420746f20746865207a65726f2061646472657373600082015250565b7f4552433732313a20617070726f76656420717565727920666f72206e6f6e657860008201527f697374656e7420746f6b656e0000000000000000000000000000000000000000602082015250565b7f4f776e61626c653a2063616c6c6572206973206e6f7420746865206f776e6572600082015250565b7f4552433732313a207472616e73666572206f6620746f6b656e2074686174206960008201527f73206e6f74206f776e0000000000000000000000000000000000000000000000602082015250565b7f4552433732314d657461646174613a2055524920717565727920666f72206e6f60008201527f6e6578697374656e7420746f6b656e0000000000000000000000000000000000602082015250565b7f4552433732313a20617070726f76616c20746f2063757272656e74206f776e6560008201527f7200000000000000000000000000000000000000000000000000000000000000602082015250565b7f536570617261746f72206d757374206578697374000000000000000000000000600082015250565b50565b7f4552433732313a207472616e736665722063616c6c6572206973206e6f74206f60008201527f776e6572206e6f7220617070726f766564000000000000000000000000000000602082015250565b613f8f81613752565b8114613f9a57600080fd5b50565b613fa681613764565b8114613fb157600080fd5b50565b613fbd81613770565b8114613fc857600080fd5b50565b613fd4816137bc565b8114613fdf57600080fd5b5056fea2646970667358221220dff13628eb02f14ed1f5a6903ff394e0a42f492997f72ecf7a2cab8f87f25b9664736f6c63430008070033",
  "immutableReferences": {},
  "source": "// SPDX-License-Identifier: MIT\r\npragma solidity ^0.8.4;\r\nimport \"@openzeppelin/contracts/token/ERC721/ERC721.sol\";\r\nimport \"@imtbl/imx-contracts/contracts/Mintable.sol\";\r\nimport \"@openzeppelin/contracts/access/Ownable.sol\";\r\n\r\ncontract Asset is Ownable, ERC721, Mintable {\r\n\r\n    uint public tokenCount = 0;\r\n    uint public cost = 0.07 ether;\r\n    uint public totalSupply = 5555;\r\n    // uint public preSaleSupply = 6018;\r\n    uint public preSaleMintLimit = 2;\r\n    uint public publicSaleMintLimit = 3;\r\n    // string public baseURI = \"https://imxkaijuz.mypinata.cloud/ipfs/QmXVnuLWZo6sgDu7TfD8eXw6oWJcZWbJNxmfVJFt4NtXBq/\";\r\n    // address[] public whiteListed;\r\n    mapping(address => uint) public publicSaleMinted;\r\n    mapping(address => uint) public preSaleMinted;\r\n    constructor(\r\n        address _owner,\r\n        string memory _name,\r\n        string memory _symbol,\r\n        address _imx\r\n    ) ERC721(_name, _symbol) Mintable(_owner, _imx) {}\r\n\r\n\r\n    // function _baseURI() internal override pure returns (string memory) {\r\n    //     return \"https://cloudflare-ipfs.com/ipfs/QmPL389dbhnYJF5GewYjAf8FV4rMiVVPXnzcmfLLkusqKG/\";\r\n    // }\r\n    function _mintFor(\r\n        address user,\r\n        uint256 id,\r\n        bytes memory _blueprint\r\n    ) internal override {\r\n        _safeMint(user, id);\r\n        blueprints[id] = _blueprint;\r\n        emit AssetMinted(user, id, _blueprint);\r\n    }\r\n\r\n    // function isWhiteListed(address _user) internal view returns(bool){\r\n    //   for(uint i = 0; i < whiteListed.length; ++i){\r\n    //     if(whiteListed[i] == _user){\r\n    //       return true;\r\n    //     }\r\n    //   }\r\n    //   return false;\r\n    // }\r\n\r\n    // function mintTokens(string memory _uri) internal {\r\n    //   _mintFor(_msgSender(), tokenCount+1, bytes(_uri));\r\n    // }\r\n\r\n\r\n    // function preSaleBuyTokens(uint _tokens, string[] memory uris) public payable {\r\n    //   // require(isWhiteListed(_msgSender()), \"ERROR: User not whitelisted.\");\r\n    //   // require(_tokens <= preSaleMintLimit, \"ERROR: Amount exceeds limit.\");\r\n    //   require(_tokens <= preSaleMintLimit, \"ERROR: Amount exceeds wallet limit.\");\r\n    //   require(msg.value == cost*_tokens, \"ERROR: Cost insufficient.\");\r\n    //   require(_tokens == uris.length, \"ERROR: Invalid numbers of blueprints.\");\r\n    //   for(uint i = 0; i < _tokens; ++i){\r\n    //     mintTokens(uris[i]);\r\n    //   }\r\n    //   (bool success, ) = payable(owner()).call{value: msg.value}(\"\");\r\n    //     require(success, \"Payment not sent.\");\r\n    // }\r\n\r\n    // function publicSaleBuyTokens(uint _tokens, string[] memory uris) public payable{\r\n    //   require(_tokens <= publicSaleMintLimit, \"ERROR: Amount exceeds wallet limit.\");\r\n    //   require(tokenCount+_tokens <= totalSupply, \"ERROR: Amount exceeds supply.\");\r\n    //   require(msg.value == cost*_tokens, \"ERROR: Cost insufficient.\");\r\n    //   require(_tokens == uris.length, \"ERROR: Invalid numbers of blueprints.\");\r\n    //   for(uint i = 0; i < _tokens; ++i){\r\n    //     mintTokens(uris[i]);\r\n    //   }\r\n    //   (bool success, ) = payable(owner()).call{value: msg.value}(\"\");\r\n    //     require(success, \"Payment not sent.\");\r\n    // }\r\n\r\n    function payFee(uint _tokens, bool _isPreSale) public payable {\r\n      require(msg.value == cost*_tokens, \"ERROR: Invalid cost.\");\r\n      if(_isPreSale){\r\n        require(preSaleMinted[msg.sender]+_tokens <= preSaleMintLimit);\r\n        preSaleMinted[msg.sender] = preSaleMinted[msg.sender]+_tokens;\r\n      }else{\r\n        require(publicSaleMinted[msg.sender]+_tokens <= publicSaleMintLimit);\r\n        publicSaleMinted[msg.sender] = publicSaleMinted[msg.sender]+_tokens;\r\n      }\r\n      tokenCount += _tokens;\r\n      \r\n      (bool success, ) = payable(owner()).call{value: msg.value}(\"\");\r\n        require(success, \"Payment not sent.\");\r\n    }\r\n    // function whitelistUser(address _user) public onlyOwner {\r\n    //   if(!isWhiteListed(_user)){\r\n    //     whiteListed.push(_user);\r\n    //   }\r\n    // }\r\n\r\n    // function addWhitelistUsers(address[] calldata _users) public onlyOwner {\r\n    //   for(uint i = 0; i < _users.length; ++i) {\r\n    //     whitelistUser(_users[i]);\r\n    //   }\r\n    // }\r\n\r\n    // function removeWhitelistUser(address _user) public onlyOwner {\r\n    //   int index = -1;\r\n    //   for(uint i = 0; i < whiteListed.length; ++i ){\r\n    //     if(whiteListed[i] == _user){\r\n    //       index = int(i);\r\n    //     }\r\n    //   }\r\n    //   if(index != -1){\r\n    //     delete whiteListed[uint(index)];\r\n    //   }\r\n    // }\r\n\r\n    function setCost(uint _cost) external onlyOwner {\r\n      cost = _cost;\r\n    }\r\n\r\n    function setTotalSupply(uint _supply) external onlyOwner {\r\n      totalSupply = _supply;\r\n    }\r\n\r\n    // function setPreSaleSupply(uint _supply) external onlyOwner {\r\n    //   require(_supply <= totalSupply, \"ERROR: preSaleSupply exceeds the totalSupply.\");\r\n    //   preSaleSupply = _supply;\r\n    // }\r\n\r\n    function setPublicMintLimit(uint _limit) external onlyOwner {\r\n      publicSaleMintLimit = _limit;\r\n    }\r\n\r\n    function setPreMintLimit(uint _limit) external onlyOwner {\r\n      preSaleMintLimit = _limit;\r\n    }\r\n\r\n}",
  "sourcePath": "C:\\Users\\sj931\\OneDrive\\Desktop\\imxkaijuzfinal\\blockchain\\contracts\\Imx.sol",
  "compiler": {
    "name": "solc",
    "version": "0.8.7+commit.e28d00a7.Emscripten.clang"
  },
  "schemaVersion": "3.4.3",
  "updatedAt": "2021-11-24T20:18:12.547Z",
  "networkType": "ethereum",
  "devdoc": {
    "kind": "dev",
    "methods": {
      "approve(address,uint256)": {
        "details": "See {IERC721-approve}."
      },
      "balanceOf(address)": {
        "details": "See {IERC721-balanceOf}."
      },
      "getApproved(uint256)": {
        "details": "See {IERC721-getApproved}."
      },
      "isApprovedForAll(address,address)": {
        "details": "See {IERC721-isApprovedForAll}."
      },
      "name()": {
        "details": "See {IERC721Metadata-name}."
      },
      "owner()": {
        "details": "Returns the address of the current owner."
      },
      "ownerOf(uint256)": {
        "details": "See {IERC721-ownerOf}."
      },
      "renounceOwnership()": {
        "details": "Leaves the contract without owner. It will not be possible to call `onlyOwner` functions anymore. Can only be called by the current owner. NOTE: Renouncing ownership will leave the contract without an owner, thereby removing any functionality that is only available to the owner."
      },
      "safeTransferFrom(address,address,uint256)": {
        "details": "See {IERC721-safeTransferFrom}."
      },
      "safeTransferFrom(address,address,uint256,bytes)": {
        "details": "See {IERC721-safeTransferFrom}."
      },
      "setApprovalForAll(address,bool)": {
        "details": "See {IERC721-setApprovalForAll}."
      },
      "supportsInterface(bytes4)": {
        "details": "See {IERC165-supportsInterface}."
      },
      "symbol()": {
        "details": "See {IERC721Metadata-symbol}."
      },
      "tokenURI(uint256)": {
        "details": "See {IERC721Metadata-tokenURI}."
      },
      "transferFrom(address,address,uint256)": {
        "details": "See {IERC721-transferFrom}."
      },
      "transferOwnership(address)": {
        "details": "Transfers ownership of the contract to a new account (`newOwner`). Can only be called by the current owner."
      }
    },
    "version": 1
  },
  "userdoc": {
    "kind": "user",
    "methods": {},
    "version": 1
  }
}